:020000040800F2
:1000000078060020650100086D0100086F010008F6
:1000100000000000000000000000000000000000E0
:100020000000000000000000000000007101000856
:1000300000000000000000007301000875010008C6
:1000400077010008770100087701000877010008B0
:1000500077010008770100087701000877010008A0
:100060007701000877010008770100087701000890
:100070007701000877010008770100087701000880
:100080007701000877010008770100087701000870
:100090007701000877010008770100087701000860
:1000A000770100087701000877010008950400082F
:1000B0007701000877010008770100087701000840
:1000C00000F002F800F03EF80CA030C80838241800
:1000D0002D18671EA246AB4654465D46AC4201D180
:1000E00000F030F87E460F3EB6460FCC0126334274
:1000F00000D0FB1A3343A246AB461847080800005D
:1001000028080000103A02D378C878C1FAD85207FC
:1001100001D330C830C101D504680C6070470000BD
:100120000023002400250026103A01D378C1FBD813
:10013000520700D330C100D50B6070471FB51FBDFB
:1001400010B510BD00F029F91146FFF7F7FF00F0D8
:1001500083FA00F041F903B4FFF7F2FF03BC00F0AB
:1001600047F900000748804707480047FEE7FEE7D9
:10017000FEE7FEE7FEE7FEE704480549054A064BB1
:100180007047000091040008C100000878000020BA
:10019000780600207802002078020020002203095F
:1001A0008B4273D3030A8B4258D3030B8B423CD34D
:1001B000030C8B4221D312E003460B437FD4002271
:1001C00043088B4274D303098B425FD3030A8B42EB
:1001D00044D3030B8B4228D3030C8B420DD309026B
:1001E000FF2212BA030C8B4202D31212090265D00D
:1001F000030B8B4219D300E0090AC30B8B4201D3D6
:10020000CB03C01A5241830B8B4201D38B03C01A1C
:100210005241430B8B4201D34B03C01A5241030B93
:100220008B4201D30B03C01A5241C30A8B4201D344
:10023000CB02C01A5241830A8B4201D38B02C01AEF
:100240005241430A8B4201D34B02C01A5241030A66
:100250008B4201D30B02C01A5241CDD2C3098B424B
:1002600001D3CB01C01A524183098B4201D38B01C8
:10027000C01A524143098B4201D34B01C01A52416B
:1002800003098B4201D30B01C01A5241C3088B42B0
:1002900001D3CB00C01A524183088B4201D38B009B
:1002A000C01A524143088B4201D34B00C01A52413D
:1002B000411A00D201465241104670475DE0CA0F14
:1002C00000D04942031000D3404253409C460022D4
:1002D00003098B422DD3030A8B4212D38901FC22DE
:1002E00012BA030A8B420CD3890192118B4208D3B4
:1002F000890192118B4204D389013AD0921100E016
:100300008909C3098B4201D3CB01C01A5241830929
:100310008B4201D38B01C01A524143098B4201D356
:100320004B01C01A524103098B4201D30B01C01A81
:100330005241C3088B4201D3CB00C01A52418308FB
:100340008B4201D38B00C01A5241D9D243088B4251
:1003500001D34B00C01A5241411A00D2014652410A
:10036000104663465B1001D34042002B00D5494242
:10037000704763465B1000D3404201B50449002832
:1003800002DC491C084000E00846C046C04602BDE9
:10039000FFFFFF7F704770477047754600F024F8F5
:1003A000AE46050069465346C008C000854618B0F1
:1003B00020B5FFF7E1FE60BCB64600260027C0C5A9
:1003C000C0C5C0C5C0C5C0C5C0C5C0C5C0C5403D0D
:1003D000490849008D46704710B50446C046C046DE
:1003E0002046FFF7B8FE10BD0048704710000020FF
:1003F00001491820ABBEFEE726000200704700004E
:10040000B0B5012081031F4A53680B435360410478
:1004100013680B4313600521CA041B490B460C3BB0
:100420001C6814431C60112212018B6913438B61F9
:1004300042020B46083B1C6894431C600322930451
:100440000C689C430C600C1F25681D432560120539
:100450000B6893430B6002050B6813430B600B4959
:100460000A6882430A604522CA600C220A600A6850
:10047000602313430B6000224A608A600A680243CB
:100480000A60B0BD141002400C0000480038014062
:10049000704700009C480168890600D470470089B5
:1004A0005A281EDD5B38232800D94CE078440079B7
:1004B000400087441148484848484848484821482F
:1004C0004848264848484848484848482D484848E9
:1004D00048484848484848341D4801780129DDD13A
:1004E00013E01B2823D0312825D035282BD11848DC
:1004F00001780329D2D10FE0154800210170554839
:100500001EE013480021017052480221017070471B
:100510000F48002101704F480421017070470C48BA
:1005200001780429BAD14B4901220A700CE008482D
:1005300001210170704706480178022900D0ADE71B
:100540000321017070470248002101707047C046C6
:1005500071000020F0B581B0534800680090534806
:10056000056850480668684F3A4C2078022802D047
:1005700001281CD15FE038680006FCD56E20B881E8
:1005800038680006FCD53D20B88138680006FCD5E7
:10059000304600F08DF838680006FCD50D20B88193
:1005A00038680006FCD5002020700A20B881207829
:1005B000032820D138680006FCD54120B88138686E
:1005C0000006FCD56E20B88138680006FCD53D20B9
:1005D000B88138680006FCD5284600F069F838680C
:1005E0000006FCD50D20B88138680006FCD5002037
:1005F00020700A20B88120780428B6D13868000617
:10060000FCD57320B88138680006FCD53D20B88140
:1006100038680006FCD5009800F04AF838680006F3
:10062000FCD50D20B88138680006FCD5002020706C
:100630000A20B88199E70020207038680006FCD5B0
:100640000D20B88138680006FCD50A20B88101B0B9
:10065000F0BDC04670000020EFF3108072B6FFF7C7
:10066000CFFE0124E0060E490A6802430A6062B622
:100670000C4D0D4E0D4F0AE0FFF76CFF3868801CE3
:1006800038602968491C296031680818306028687A
:100690001028F1D12C60042030603860ECE7C046AF
:1006A00000E100E00400002008000020000000201D
:1006B000B0B50446642100F029F8C0B2124D0028FC
:1006C00009D06321C94341432A681206FCD502467A
:1006D0003032AA810C19002801D10A2C09D32868CC
:1006E0000006FCD50A21204600F010F83030C0B2D8
:1006F000A88128680006FCD50A212046FFF74EFD98
:1007000030200843A881B0BD1C38014043088B420B
:100710001AD3002203098B4279D3030A8B425ED39A
:10072000030B8B4242D3030C8B4227D30902FF22D7
:1007300012BA030C8B4202D31212090203D0030B2C
:100740008B4233D31AE0D3E0411A8041401C7047FA
:1007500003460B4371D443088B42F5D300220309AF
:100760008B4254D3030A8B4239D3030B8B421DD3E4
:10077000030C8B4202D394466EE0090AC30B8B42F2
:1007800001D3CB03C01A5241830B8B4201D38B039D
:10079000C01A5241430B8B4201D34B03C01A524142
:1007A000030B8B4201D30B03C01A5241C30A8B4285
:1007B00001D3CB02C01A5241830A8B4201D38B0270
:1007C000C01A5241430A8B4201D34B02C01A524114
:1007D000030A8B4201D30B02C01A5241CDD2C30986
:1007E0008B4201D3CB01C01A524183098B4201D302
:1007F0008B01C01A524143098B4201D34B01C01AED
:10080000524103098B4201D30B01C01A5241C30864
:100810008B4201D3CB00C01A524183088B4201D3D3
:100820008B00C01A524143088B4201D34B00C01ABF
:100830005241411A524110007047CA0F00D049423C
:10084000031000D34042534000229C4603098B42D0
:100850002DD3030A8B4212D38901FC2212BA030A58
:100860008B420CD3890192118B4208D389019211DA
:100870008B4204D3890137D0921100E08909C30962
:100880008B4201D3CB01C01A524183098B4201D361
:100890008B01C01A524143098B4201D34B01C01A4C
:1008A000524103098B4201D30B01C01A5241C308C4
:1008B0008B4201D3CB00C01A524183088B4201D333
:1008C0008B00C01A5241D9D243088B4201D34B004E
:1008D000C01A5241411A00D20146524110466346A5
:1008E0005B1000D34042704763465B1000D3404228
:1008F00001B50021004201D0C9430846C046C046A8
:1009000002BD000024090008000000200C000000C7
:1009100004010008300900081000002068060000EB
:100920002001000804000000010000000400000095
:040000050800016589
:00000001FF
