:020000040800F2
:100000006006002049010008510100085301000862
:1000100000000000000000000000000000000000E0
:100020000000000000000000000000005501000872
:1000300000000000000000005701000859010008FE
:100040005B0100085B0100085B0100085B01000820
:100050005B0100085B0100085B0100085B01000810
:100060005B0100085B0100085B0100085B01000800
:100070005B0100085B0100085B0100085B010008F0
:100080005B0100085B0100085B0100085B010008E0
:100090005B0100085B0100085B0100085B010008D0
:1000A0005B0100085B0100085B0100085B010008C0
:1000B0005B0100085B0100085B0100085B010008B0
:1000C00000F002F800F030F80CA030C8083824180E
:1000D0002D18671EA246AB4654465D46AC4201D180
:1000E00000F022F87E460F3EB6460FCC0126334282
:1000F00000D0FB1A3343A246AB461847A0010000CC
:10010000B00100000023002400250026103A01D38E
:1001100078C1FBD8520700D330C100D50B607047BF
:100120001FB51FBD10B510BD00F02DF81146FFF72B
:10013000F7FF00F0A3F800F045F803B4FFF7F2FF73
:1001400003BC00F04BF80000074880470748004711
:10015000FEE7FEE7FEE7FEE7FEE7FEE704480549A7
:10016000054A064B7047000079020008C1000008EC
:100170006000002060060020600200206002002075
:10018000704770477047754600F024F8AE4605008A
:1001900069465346C008C000854618B020B5FFF731
:1001A000DDFF60BCB64600260027C0C5C0C5C0C57F
:1001B000C0C5C0C5C0C5C0C5C0C5403D490849008F
:1001C0008D46704710B50446C046C0462046FFF72E
:1001D000B4FF10BD004870470000002001491820FE
:1001E000ABBEFEE72600020070470000B0B501205C
:1001F00081031E4A53680B435360410413680B4349
:1002000013600521CA041A490B460C3B1C681443B1
:100210001C60112212018B6913438B6142020B4651
:10022000083B1C6894431C60032293040C689C43A5
:100230000C600C1F25681D43256012050B68934355
:100240000B6002050B6813430B600A490A6882437E
:100250000A604522CA600C220A6002034A6000223A
:100260008A600A6802430A60B0BDC04614100240AA
:100270000C0000480038014070470000FFF7B6FF4F
:10028000054801688906FCD5018902681206FCD57B
:10029000C9B28181F5E7C0461C380140AC020008B4
:0C02A000000000206006000004010008BF
:0400000508000149A5
:00000001FF
