:020000040800F2
:100000006006002059010008610100086301000832
:1000100000000000000000000000000000000000E0
:100020000000000000000000000000006501000862
:1000300000000000000000006701000869010008DE
:100040006B0100086B0100086B0100086B010008E0
:100050006B0100086B0100086B0100086B010008D0
:100060006B0100086B0100086B0100086B010008C0
:100070006B0100086B0100086B0100086B010008B0
:100080006B0100086B0100086B0100086B010008A0
:100090006B0100086B0100086B0100086B01000890
:1000A0006B0100086B0100086B0100086B01000880
:1000B0006B0100086B0100086B0100086B01000870
:1000C00000F002F800F038F80CA030C80838241806
:1000D0002D18671EA246AB4654465D46AC4201D180
:1000E00000F02AF87E460F3EB6460FCC012633427A
:1000F00000D0FB1A3343A246AB461847F005000078
:10010000000600000023002400250026103A01D339
:1001100078C1FBD8520700D330C100D50B607047BF
:1001200010B5732902D100F0D9F810BD002010BD20
:100130001FB51FBD10B510BD00F0D4F81146FFF774
:10014000F7FF00F077F900F0ECF803B4FFF7F2FFE7
:1001500003BC00F0F3F80000074880470748004759
:10016000FEE7FEE7FEE7FEE7FEE7FEE70448054997
:10017000054A064B704700004B030008C100000809
:100180006000002060060020600200206002002065
:100190000FB41CB5074B06AA7B446946009005982E
:1001A00000F071F80020694600F080F81CBC08BC23
:1001B00004B0184711010000F8B50E4604460020AF
:1001C00020622046E1688847002829D0252802D0EF
:1001D0006268A16820E0E1682046002788470500A2
:1001E0001ED028464138192802D80127FF022035A1
:1001F0003246204627602946FFF792FF002808D0A4
:10020000012804D0F61DF608F6000836D9E7361D99
:10021000D7E762682846A1689047206A401CCFE76C
:10022000206AF8BD70B50C460546012A05D028782D
:10023000800600D5EA69002302E0012305E05B1C8B
:10024000934202D2E05C0028F9D1A869E618C01AEE
:10025000A861286AC01828622846C046C04604E043
:100260006A682078A968641C9047B442F8D328468D
:10027000C046C04670BD70477047704701694A1C50
:1002800002610878704700B58FB002910021059196
:100290000549019379440391114604906846FFF79C
:1002A0008BFF0FB000BD0000E5FFFFFF0A68107074
:1002B000521C0A60704710B54369002B02D0C0463B
:1002C000C04601E0FFF7AEFF012010BD12780146E5
:1002D00024310A7000224A700122ECE711680022E2
:1002E000D243E8E7754600F025F8AE4605006946BA
:1002F0005346C008C000854618B020B5FFF736FF4A
:1003000060BCB64600260027C0C5C0C5C0C5C0C574
:10031000C0C5C0C5C0C5C0C5403D490849008D46DF
:10032000704710B50446C046C0462046FFF70DFF93
:1003300010BD00000048704700000020014918204F
:10034000ABBEFEE72600020070477047F0B581B0F3
:100350001446884207DA00270A281DDB1149401895
:100360000A38007819E00D460027064605E03031CE
:10037000E1557F1CA8420646EEDB3046294600F0D8
:10038000D9F829464143711ACAB20A2AEFD305495E
:1003900051180A390978EBE73030E055781C01B084
:1003A000F0BDC046E6060008B0B5012081031D4A35
:1003B00053680B435360410413680B4313600521DA
:1003C000CA0419490B460C3B1C6814431C601122DB
:1003D00012018B6913438B6142020B46083B1C6878
:1003E00094431C600A68114B1A400A60032292046D
:1003F0000C1F2568154325600A681A400A6002052B
:100400000B6813430B600A490A6882430A6045225D
:10041000CA600C220A6000224A608A600A680243AD
:100420000A60B0BD141002400C000048FFFFCFFF6F
:1004300000380140D0B502AF9EB06E46FFF7B4FF62
:10044000F01D3D30441E1A49B4600BE0F51D09351E
:10045000284618A1FFF79CFE284600F033F8F06804
:100460008546134908680006FCD508688006FCD557
:1004700008890D21F21D3D32FFF768FF0546322441
:10048000102000F02DF8641EFAD1E81D07218843E2
:100490006946F16069460A1A9546012D1046B4680E
:1004A000D4DB615D0170401C6D1EFAD1CEE7C04601
:1004B0001C380140626479202D203133203E2025F4
:1004C000730D000010B50178002908D0441CC8B293
:1004D00000F006F8601C217800290446F7D110BD11
:1004E00002490A681206FCD5888170471C38014011
:1004F00043088B421AD3002203098B4279D3030AA3
:100500008B425ED3030B8B4242D3030C8B4227D327
:100510000902FF2212BA030C8B4202D31212090203
:1005200003D0030B8B4233D31AE0D3E0411A80414E
:10053000401C704703460B4371D443088B42F5D3EC
:10054000002203098B4254D3030A8B4239D3030B95
:100550008B421DD3030C8B4202D394466EE0090AF2
:10056000C30B8B4201D3CB03C01A5241830B8B4286
:1005700001D38B03C01A5241430B8B4201D34B036F
:10058000C01A5241030B8B4201D30B03C01A5241D4
:10059000C30A8B4201D3CB02C01A5241830A8B4259
:1005A00001D38B02C01A5241430A8B4201D34B0242
:1005B000C01A5241030A8B4201D30B02C01A5241A6
:1005C000CDD2C3098B4201D3CB01C01A524183095A
:1005D0008B4201D38B01C01A524143098B4201D394
:1005E0004B01C01A524103098B4201D30B01C01ABF
:1005F0005241C3088B4201D3CB00C01A5241830839
:100600008B4201D38B00C01A524143088B4201D365
:100610004B00C01A5241411A524110007047CA0F94
:1006200000D04942031000D34042534000229C4670
:1006300003098B422DD3030A8B4212D38901FC227A
:1006400012BA030A8B420CD3890192118B4208D350
:10065000890192118B4204D3890137D0921100E0B5
:100660008909C3098B4201D3CB01C01A52418309C6
:100670008B4201D38B01C01A524143098B4201D3F3
:100680004B01C01A524103098B4201D30B01C01A1E
:100690005241C3088B4201D3CB00C01A5241830898
:1006A0008B4201D38B00C01A5241D9D243088B42EE
:1006B00001D34B00C01A5241411A00D201465241A7
:1006C000104663465B1000D34042704763465B10A0
:1006D00000D3404201B50021004201D0C943084681
:1006E000C046C04602BD414243440000FC0600082B
:0C06F0000000002060060000040100086B
:040000050800015995
:00000001FF
