:020000040800F2
:100000006006002049010008510100085301000862
:1000100000000000000000000000000000000000E0
:100020000000000000000000000000005501000872
:1000300000000000000000005701000859010008FE
:100040005B0100085B0100085B0100085B01000820
:100050005B0100085B0100085B0100085B01000810
:100060005B0100085B0100085B0100085B01000800
:100070005B0100085B0100085B0100085B010008F0
:100080005B0100085B0100085B0100085B010008E0
:100090005B0100085B0100085B0100085B010008D0
:1000A0005B0100085B0100085B0100085B010008C0
:1000B0005B0100085B0100085B0100085B010008B0
:1000C00000F002F800F030F80CA030C8083824180E
:1000D0002D18671EA246AB4654465D46AC4201D180
:1000E00000F022F87E460F3EB6460FCC0126334282
:1000F00000D0FB1A3343A246AB461847200300004A
:10010000300300000023002400250026103A01D30C
:1001100078C1FBD8520700D330C100D50B607047BF
:100120001FB51FBD10B510BD00F02DF81146FFF72B
:10013000F7FF00F09FF800F045F803B4FFF7F2FF77
:1001400003BC00F04BF80000074880470748004711
:10015000FEE7FEE7FEE7FEE7FEE7FEE704480549A7
:10016000054A064B7047000071020008C1000008F4
:100170006000002060060020600200206002002075
:10018000704770477047754600F024F8AE4605008A
:1001900069465346C008C000854618B020B5FFF731
:1001A000DDFF60BCB64600260027C0C5C0C5C0C57F
:1001B000C0C5C0C5C0C5C0C5C0C5403D490849008F
:1001C0008D46704710B50446C046C0462046FFF72E
:1001D000B4FF10BD004870470000002001491820FE
:1001E000ABBEFEE72600020070470000B0B501205C
:1001F00081033D4A53680B435360410413680B432A
:1002000013600521CA0418490B460C3B1C681443B3
:100210001C60112212018B6913438B6142020B4651
:10022000083B1C6894431C60032293040C689C43A5
:100230000C600C1F25681D43256012050B68934355
:100240000B6002050B6813430B6008490A68824380
:100250000A604522CA600C220A6000224A608A6055
:100260000A6802430A60B0BD0C0000480038014033
:100270007047000084B0FFF7B9FF012080041A49DD
:100280000A6802430A6019480168194A0A43026071
:1002900000210391029101910091164A17A402E0F6
:1002A00083692B4383611568AD06FCD515891668F3
:1002B0003606FCD5EDB2958109260F4F03E0761E78
:1002C0002037002E04D03B68AB42F8D17968F6E7BE
:1002D0004D006E46775B7B427B4173538B00E55844
:1002E000002FDDD02D04DBE714100240000400488D
:1002F000555501001C3801401C0300080101000095
:100300000201000004010000800100004001000023
:100310002001000010010000080100003100000071
:1003200000000000000000000000000000000000CD
:10033000000000000000000000000000320000008B
:1003400001000000000000000000000000000000AC
:10035000000000000000000000000000330000006A
:10036000020000000000000000000000000000008B
:100370000000000000000000000000003400000049
:10038000030000000000000000000000000000006A
:100390000000000000000000000000003500000028
:1003A0000400000000000000000000000000000049
:1003B0000000000000000000000000003600000007
:1003C0000500000000000000000000000000000028
:1003D00000000000000000000000000037000000E6
:1003E0000600000000000000000000000000000007
:1003F00000000000000000000000000038000000C5
:1004000007000000000000000000000000000000E5
:100410000000000000000000000000002C040008A4
:0C0420000000002060060000040100083D
:0400000508000149A5
:00000001FF
